{
  "_format": "hh-sol-artifact-1",
  "contractName": "MusicAuction",
  "sourceName": "contracts/SimpleMusic.sol",
  "abi": [
    {
      "inputs": [
        {
          "internalType": "address",
          "name": "_musicContract",
          "type": "address"
        }
      ],
      "stateMutability": "nonpayable",
      "type": "constructor"
    },
    {
      "anonymous": false,
      "inputs": [
        {
          "indexed": true,
          "internalType": "uint256",
          "name": "auctionId",
          "type": "uint256"
        },
        {
          "indexed": true,
          "internalType": "uint256",
          "name": "songId",
          "type": "uint256"
        },
        {
          "indexed": false,
          "internalType": "uint256",
          "name": "startingBid",
          "type": "uint256"
        },
        {
          "indexed": false,
          "internalType": "uint256",
          "name": "endTime",
          "type": "uint256"
        }
      ],
      "name": "AuctionCreated",
      "type": "event"
    },
    {
      "anonymous": false,
      "inputs": [
        {
          "indexed": true,
          "internalType": "uint256",
          "name": "auctionId",
          "type": "uint256"
        },
        {
          "indexed": false,
          "internalType": "address",
          "name": "winner",
          "type": "address"
        },
        {
          "indexed": false,
          "internalType": "uint256",
          "name": "amount",
          "type": "uint256"
        }
      ],
      "name": "AuctionEnded",
      "type": "event"
    },
    {
      "anonymous": false,
      "inputs": [
        {
          "indexed": true,
          "internalType": "uint256",
          "name": "auctionId",
          "type": "uint256"
        },
        {
          "indexed": true,
          "internalType": "address",
          "name": "bidder",
          "type": "address"
        },
        {
          "indexed": false,
          "internalType": "uint256",
          "name": "amount",
          "type": "uint256"
        }
      ],
      "name": "BidPlaced",
      "type": "event"
    },
    {
      "inputs": [],
      "name": "auctionCounter",
      "outputs": [
        {
          "internalType": "uint256",
          "name": "",
          "type": "uint256"
        }
      ],
      "stateMutability": "view",
      "type": "function"
    },
    {
      "inputs": [
        {
          "internalType": "uint256",
          "name": "",
          "type": "uint256"
        }
      ],
      "name": "auctions",
      "outputs": [
        {
          "internalType": "uint256",
          "name": "songId",
          "type": "uint256"
        },
        {
          "internalType": "address",
          "name": "seller",
          "type": "address"
        },
        {
          "internalType": "uint256",
          "name": "startingBid",
          "type": "uint256"
        },
        {
          "internalType": "uint256",
          "name": "highestBid",
          "type": "uint256"
        },
        {
          "internalType": "address",
          "name": "highestBidder",
          "type": "address"
        },
        {
          "internalType": "uint256",
          "name": "endTime",
          "type": "uint256"
        },
        {
          "internalType": "bool",
          "name": "ended",
          "type": "bool"
        },
        {
          "internalType": "bool",
          "name": "exists",
          "type": "bool"
        }
      ],
      "stateMutability": "view",
      "type": "function"
    },
    {
      "inputs": [
        {
          "internalType": "uint256",
          "name": "_songId",
          "type": "uint256"
        },
        {
          "internalType": "uint256",
          "name": "_startingBid",
          "type": "uint256"
        },
        {
          "internalType": "uint256",
          "name": "_duration",
          "type": "uint256"
        },
        {
          "internalType": "address",
          "name": "_seller",
          "type": "address"
        }
      ],
      "name": "createAuction",
      "outputs": [
        {
          "internalType": "uint256",
          "name": "",
          "type": "uint256"
        }
      ],
      "stateMutability": "nonpayable",
      "type": "function"
    },
    {
      "inputs": [
        {
          "internalType": "uint256",
          "name": "_auctionId",
          "type": "uint256"
        }
      ],
      "name": "endAuction",
      "outputs": [],
      "stateMutability": "nonpayable",
      "type": "function"
    },
    {
      "inputs": [],
      "name": "getActiveAuctions",
      "outputs": [
        {
          "internalType": "uint256[]",
          "name": "",
          "type": "uint256[]"
        }
      ],
      "stateMutability": "view",
      "type": "function"
    },
    {
      "inputs": [
        {
          "internalType": "uint256",
          "name": "_auctionId",
          "type": "uint256"
        }
      ],
      "name": "getAuction",
      "outputs": [
        {
          "internalType": "uint256",
          "name": "songId",
          "type": "uint256"
        },
        {
          "internalType": "address",
          "name": "seller",
          "type": "address"
        },
        {
          "internalType": "uint256",
          "name": "startingBid",
          "type": "uint256"
        },
        {
          "internalType": "uint256",
          "name": "highestBid",
          "type": "uint256"
        },
        {
          "internalType": "address",
          "name": "highestBidder",
          "type": "address"
        },
        {
          "internalType": "uint256",
          "name": "endTime",
          "type": "uint256"
        },
        {
          "internalType": "bool",
          "name": "ended",
          "type": "bool"
        },
        {
          "internalType": "uint256",
          "name": "timeLeft",
          "type": "uint256"
        }
      ],
      "stateMutability": "view",
      "type": "function"
    },
    {
      "inputs": [],
      "name": "musicContract",
      "outputs": [
        {
          "internalType": "contract SimpleMusic",
          "name": "",
          "type": "address"
        }
      ],
      "stateMutability": "view",
      "type": "function"
    },
    {
      "inputs": [
        {
          "internalType": "uint256",
          "name": "",
          "type": "uint256"
        },
        {
          "internalType": "address",
          "name": "",
          "type": "address"
        }
      ],
      "name": "pendingReturns",
      "outputs": [
        {
          "internalType": "uint256",
          "name": "",
          "type": "uint256"
        }
      ],
      "stateMutability": "view",
      "type": "function"
    },
    {
      "inputs": [
        {
          "internalType": "uint256",
          "name": "_auctionId",
          "type": "uint256"
        }
      ],
      "name": "placeBid",
      "outputs": [],
      "stateMutability": "payable",
      "type": "function"
    },
    {
      "inputs": [
        {
          "internalType": "uint256",
          "name": "_auctionId",
          "type": "uint256"
        }
      ],
      "name": "withdraw",
      "outputs": [],
      "stateMutability": "nonpayable",
      "type": "function"
    }
  ],
  "bytecode": "0x60806040523480156200001157600080fd5b5060405162001c9538038062001c958339818101604052810190620000379190620000e9565b80600360006101000a81548173ffffffffffffffffffffffffffffffffffffffff021916908373ffffffffffffffffffffffffffffffffffffffff160217905550506200011b565b600080fd5b600073ffffffffffffffffffffffffffffffffffffffff82169050919050565b6000620000b18262000084565b9050919050565b620000c381620000a4565b8114620000cf57600080fd5b50565b600081519050620000e381620000b8565b92915050565b6000602082840312156200010257620001016200007f565b5b60006200011284828501620000d2565b91505092915050565b611b6a806200012b6000396000f3fe6080604052600436106100915760003560e01c80638ddac1ef116100595780638ddac1ef146101af5780639979ef45146101ec578063a7e7664414610208578063b9a2de3a14610233578063cf44b5d51461025c57610091565b80632e1a7d4d14610096578063571a26a0146100bf57806372898dd11461010357806378bd79351461012e578063819c9e4c14610172575b600080fd5b3480156100a257600080fd5b506100bd60048036038101906100b891906110ed565b610287565b005b3480156100cb57600080fd5b506100e660048036038101906100e191906110ed565b6103c0565b6040516100fa989796959493929190611185565b60405180910390f35b34801561010f57600080fd5b50610118610462565b6040516101259190611262565b60405180910390f35b34801561013a57600080fd5b50610155600480360381019061015091906110ed565b610488565b60405161016998979695949392919061127d565b60405180910390f35b34801561017e57600080fd5b5061019960048036038101906101949190611327565b6105aa565b6040516101a6919061138e565b60405180910390f35b3480156101bb57600080fd5b506101d660048036038101906101d191906113a9565b61082d565b6040516101e3919061138e565b60405180910390f35b610206600480360381019061020191906110ed565b610852565b005b34801561021457600080fd5b5061021d610ba5565b60405161022a919061138e565b60405180910390f35b34801561023f57600080fd5b5061025a600480360381019061025591906110ed565b610bab565b005b34801561026857600080fd5b50610271610eed565b60405161027e91906114a7565b60405180910390f35b60006001600083815260200190815260200160002060003373ffffffffffffffffffffffffffffffffffffffff1673ffffffffffffffffffffffffffffffffffffffff1681526020019081526020016000205490506000811161031f576040517f08c379a000000000000000000000000000000000000000000000000000000000815260040161031690611526565b60405180910390fd5b60006001600084815260200190815260200160002060003373ffffffffffffffffffffffffffffffffffffffff1673ffffffffffffffffffffffffffffffffffffffff168152602001908152602001600020819055503373ffffffffffffffffffffffffffffffffffffffff166108fc829081150290604051600060405180830381858888f193505050501580156103bb573d6000803e3d6000fd5b505050565b60006020528060005260406000206000915090508060000154908060010160009054906101000a900473ffffffffffffffffffffffffffffffffffffffff16908060020154908060030154908060040160009054906101000a900473ffffffffffffffffffffffffffffffffffffffff16908060050154908060060160009054906101000a900460ff16908060060160019054906101000a900460ff16905088565b600360009054906101000a900473ffffffffffffffffffffffffffffffffffffffff1681565b60008060008060008060008060008060008b815260200190815260200160002090508060060160019054906101000a900460ff166104fb576040517f08c379a00000000000000000000000000000000000000000000000000000000081526004016104f290611592565b60405180910390fd5b6000816005015442101561051c5742826005015461051991906115e1565b90505b81600001548260010160009054906101000a900473ffffffffffffffffffffffffffffffffffffffff16836002015484600301548560040160009054906101000a900473ffffffffffffffffffffffffffffffffffffffff1686600501548760060160009054906101000a900460ff1687995099509950995099509950995099505050919395975091939597565b6000600360009054906101000a900473ffffffffffffffffffffffffffffffffffffffff1673ffffffffffffffffffffffffffffffffffffffff163373ffffffffffffffffffffffffffffffffffffffff161461063c576040517f08c379a000000000000000000000000000000000000000000000000000000000815260040161063390611687565b60405180910390fd5b600060026000815480929190610651906116a7565b9190505590506040518061010001604052808781526020018473ffffffffffffffffffffffffffffffffffffffff16815260200186815260200160008152602001600073ffffffffffffffffffffffffffffffffffffffff16815260200185426106bb91906116ef565b8152602001600015158152602001600115158152506000808381526020019081526020016000206000820151816000015560208201518160010160006101000a81548173ffffffffffffffffffffffffffffffffffffffff021916908373ffffffffffffffffffffffffffffffffffffffff160217905550604082015181600201556060820151816003015560808201518160040160006101000a81548173ffffffffffffffffffffffffffffffffffffffff021916908373ffffffffffffffffffffffffffffffffffffffff16021790555060a0820151816005015560c08201518160060160006101000a81548160ff02191690831515021790555060e08201518160060160016101000a81548160ff02191690831515021790555090505085817fa9c8dfcda5664a5a124c713e386da27de87432d5b668e79458501eb296389ba787874261080b91906116ef565b604051610819929190611723565b60405180910390a380915050949350505050565b6001602052816000526040600020602052806000526040600020600091509150505481565b600080600083815260200190815260200160002090508060060160019054906101000a900460ff166108b9576040517f08c379a00000000000000000000000000000000000000000000000000000000081526004016108b090611592565b60405180910390fd5b806005015442106108ff576040517f08c379a00000000000000000000000000000000000000000000000000000000081526004016108f690611798565b60405180910390fd5b80600301543411610945576040517f08c379a000000000000000000000000000000000000000000000000000000000815260040161093c9061182a565b60405180910390fd5b806002015434101561098c576040517f08c379a0000000000000000000000000000000000000000000000000000000008152600401610983906118bc565b60405180910390fd5b8060010160009054906101000a900473ffffffffffffffffffffffffffffffffffffffff1673ffffffffffffffffffffffffffffffffffffffff163373ffffffffffffffffffffffffffffffffffffffff1603610a1e576040517f08c379a0000000000000000000000000000000000000000000000000000000008152600401610a1590611928565b60405180910390fd5b600073ffffffffffffffffffffffffffffffffffffffff168160040160009054906101000a900473ffffffffffffffffffffffffffffffffffffffff1673ffffffffffffffffffffffffffffffffffffffff1614610b065780600301546001600084815260200190815260200160002060008360040160009054906101000a900473ffffffffffffffffffffffffffffffffffffffff1673ffffffffffffffffffffffffffffffffffffffff1673ffffffffffffffffffffffffffffffffffffffff1681526020019081526020016000206000828254610afe91906116ef565b925050819055505b348160030181905550338160040160006101000a81548173ffffffffffffffffffffffffffffffffffffffff021916908373ffffffffffffffffffffffffffffffffffffffff1602179055503373ffffffffffffffffffffffffffffffffffffffff16827f0e54eff26401bf69b81b26f60bd85ef47f5d85275c1d268d84f68d6897431c4734604051610b99919061138e565b60405180910390a35050565b60025481565b600080600083815260200190815260200160002090508060060160019054906101000a900460ff16610c12576040517f08c379a0000000000000000000000000000000000000000000000000000000008152600401610c0990611592565b60405180910390fd5b8060050154421015610c59576040517f08c379a0000000000000000000000000000000000000000000000000000000008152600401610c5090611994565b60405180910390fd5b8060060160009054906101000a900460ff1615610cab576040517f08c379a0000000000000000000000000000000000000000000000000000000008152600401610ca290611a00565b60405180910390fd5b60018160060160006101000a81548160ff021916908315150217905550600073ffffffffffffffffffffffffffffffffffffffff168160040160009054906101000a900473ffffffffffffffffffffffffffffffffffffffff1673ffffffffffffffffffffffffffffffffffffffff1614610ead57600360009054906101000a900473ffffffffffffffffffffffffffffffffffffffff1673ffffffffffffffffffffffffffffffffffffffff166329507f7382600001548360040160009054906101000a900473ffffffffffffffffffffffffffffffffffffffff166040518363ffffffff1660e01b8152600401610da5929190611a20565b600060405180830381600087803b158015610dbf57600080fd5b505af1158015610dd3573d6000803e3d6000fd5b505050508060010160009054906101000a900473ffffffffffffffffffffffffffffffffffffffff1673ffffffffffffffffffffffffffffffffffffffff166108fc82600301549081150290604051600060405180830381858888f19350505050158015610e45573d6000803e3d6000fd5b50817fd2aa34a4fdbbc6dff6a3e56f46e0f3ae2a31d7785ff3487aa5c95c642acea5018260040160009054906101000a900473ffffffffffffffffffffffffffffffffffffffff168360030154604051610ea0929190611a49565b60405180910390a2610ee9565b817fd2aa34a4fdbbc6dff6a3e56f46e0f3ae2a31d7785ff3487aa5c95c642acea501600080604051610ee0929190611aad565b60405180910390a25b5050565b6060600060025467ffffffffffffffff811115610f0d57610f0c611ad6565b5b604051908082528060200260200182016040528015610f3b5781602001602082028036833780820191505090505b5090506000805b6002548110156110025760008082815260200190815260200160002060060160019054906101000a900460ff168015610f9b575060008082815260200190815260200160002060060160009054906101000a900460ff16155b8015610fbb57506000808281526020019081526020016000206005015442105b15610fef5780838381518110610fd457610fd3611b05565b5b6020026020010181815250508180610feb906116a7565b9250505b8080610ffa906116a7565b915050610f42565b5060008167ffffffffffffffff81111561101f5761101e611ad6565b5b60405190808252806020026020018201604052801561104d5781602001602082028036833780820191505090505b50905060005b828110156110a85783818151811061106e5761106d611b05565b5b602002602001015182828151811061108957611088611b05565b5b60200260200101818152505080806110a0906116a7565b915050611053565b5080935050505090565b600080fd5b6000819050919050565b6110ca816110b7565b81146110d557600080fd5b50565b6000813590506110e7816110c1565b92915050565b600060208284031215611103576111026110b2565b5b6000611111848285016110d8565b91505092915050565b611123816110b7565b82525050565b600073ffffffffffffffffffffffffffffffffffffffff82169050919050565b600061115482611129565b9050919050565b61116481611149565b82525050565b60008115159050919050565b61117f8161116a565b82525050565b60006101008201905061119b600083018b61111a565b6111a8602083018a61115b565b6111b5604083018961111a565b6111c2606083018861111a565b6111cf608083018761115b565b6111dc60a083018661111a565b6111e960c0830185611176565b6111f660e0830184611176565b9998505050505050505050565b6000819050919050565b600061122861122361121e84611129565b611203565b611129565b9050919050565b600061123a8261120d565b9050919050565b600061124c8261122f565b9050919050565b61125c81611241565b82525050565b60006020820190506112776000830184611253565b92915050565b600061010082019050611293600083018b61111a565b6112a0602083018a61115b565b6112ad604083018961111a565b6112ba606083018861111a565b6112c7608083018761115b565b6112d460a083018661111a565b6112e160c0830185611176565b6112ee60e083018461111a565b9998505050505050505050565b61130481611149565b811461130f57600080fd5b50565b600081359050611321816112fb565b92915050565b60008060008060808587031215611341576113406110b2565b5b600061134f878288016110d8565b9450506020611360878288016110d8565b9350506040611371878288016110d8565b925050606061138287828801611312565b91505092959194509250565b60006020820190506113a3600083018461111a565b92915050565b600080604083850312156113c0576113bf6110b2565b5b60006113ce858286016110d8565b92505060206113df85828601611312565b9150509250929050565b600081519050919050565b600082825260208201905092915050565b6000819050602082019050919050565b61141e816110b7565b82525050565b60006114308383611415565b60208301905092915050565b6000602082019050919050565b6000611454826113e9565b61145e81856113f4565b935061146983611405565b8060005b8381101561149a5781516114818882611424565b975061148c8361143c565b92505060018101905061146d565b5085935050505092915050565b600060208201905081810360008301526114c18184611449565b905092915050565b600082825260208201905092915050565b7f4e6f2066756e647320746f207769746864726177000000000000000000000000600082015250565b60006115106014836114c9565b915061151b826114da565b602082019050919050565b6000602082019050818103600083015261153f81611503565b9050919050565b7f41756374696f6e20646f6573206e6f7420657869737400000000000000000000600082015250565b600061157c6016836114c9565b915061158782611546565b602082019050919050565b600060208201905081810360008301526115ab8161156f565b9050919050565b7f4e487b7100000000000000000000000000000000000000000000000000000000600052601160045260246000fd5b60006115ec826110b7565b91506115f7836110b7565b925082820390508181111561160f5761160e6115b2565b5b92915050565b7f4f6e6c79206d7573696320636f6e74726163742063616e20637265617465206160008201527f756374696f6e7300000000000000000000000000000000000000000000000000602082015250565b60006116716027836114c9565b915061167c82611615565b604082019050919050565b600060208201905081810360008301526116a081611664565b9050919050565b60006116b2826110b7565b91507fffffffffffffffffffffffffffffffffffffffffffffffffffffffffffffffff82036116e4576116e36115b2565b5b600182019050919050565b60006116fa826110b7565b9150611705836110b7565b925082820190508082111561171d5761171c6115b2565b5b92915050565b6000604082019050611738600083018561111a565b611745602083018461111a565b9392505050565b7f41756374696f6e2068617320656e646564000000000000000000000000000000600082015250565b60006117826011836114c9565b915061178d8261174c565b602082019050919050565b600060208201905081810360008301526117b181611775565b9050919050565b7f426964206d75737420626520686967686572207468616e2063757272656e742060008201527f6869676865737400000000000000000000000000000000000000000000000000602082015250565b60006118146027836114c9565b915061181f826117b8565b604082019050919050565b6000602082019050818103600083015261184381611807565b9050919050565b7f426964206d757374206265206174206c65617374207374617274696e6720626960008201527f6400000000000000000000000000000000000000000000000000000000000000602082015250565b60006118a66021836114c9565b91506118b18261184a565b604082019050919050565b600060208201905081810360008301526118d581611899565b9050919050565b7f53656c6c65722063616e6e6f7420626964206f6e206f776e2061756374696f6e600082015250565b60006119126020836114c9565b915061191d826118dc565b602082019050919050565b6000602082019050818103600083015261194181611905565b9050919050565b7f41756374696f6e20686173206e6f7420656e6465642079657400000000000000600082015250565b600061197e6019836114c9565b915061198982611948565b602082019050919050565b600060208201905081810360008301526119ad81611971565b9050919050565b7f41756374696f6e20616c726561647920656e6465640000000000000000000000600082015250565b60006119ea6015836114c9565b91506119f5826119b4565b602082019050919050565b60006020820190508181036000830152611a19816119dd565b9050919050565b6000604082019050611a35600083018561111a565b611a42602083018461115b565b9392505050565b6000604082019050611a5e600083018561115b565b611a6b602083018461111a565b9392505050565b6000819050919050565b6000611a97611a92611a8d84611a72565b611203565b6110b7565b9050919050565b611aa781611a7c565b82525050565b6000604082019050611ac2600083018561115b565b611acf6020830184611a9e565b9392505050565b7f4e487b7100000000000000000000000000000000000000000000000000000000600052604160045260246000fd5b7f4e487b7100000000000000000000000000000000000000000000000000000000600052603260045260246000fdfea2646970667358221220c3b4a21dd5f7fe1df0510f8ca8a075bb01d21be9187eb43147ce55aca6e3581164736f6c63430008120033",
  "linkReferences": {},
  "deployedLinkReferences": {}
}