{
  "_format": "hh-sol-artifact-1",
  "contractName": "SimpleMusic",
  "sourceName": "contracts/SimpleMusic.sol",
  "abi": [
    {
      "anonymous": false,
      "inputs": [
        {
          "indexed": false,
          "internalType": "uint256",
          "name": "id",
          "type": "uint256"
        },
        {
          "indexed": false,
          "internalType": "string",
          "name": "title",
          "type": "string"
        },
        {
          "indexed": false,
          "internalType": "address",
          "name": "owner",
          "type": "address"
        }
      ],
      "name": "SongCreated",
      "type": "event"
    },
    {
      "anonymous": false,
      "inputs": [
        {
          "indexed": false,
          "internalType": "uint256",
          "name": "id",
          "type": "uint256"
        },
        {
          "indexed": false,
          "internalType": "address",
          "name": "from",
          "type": "address"
        },
        {
          "indexed": false,
          "internalType": "address",
          "name": "to",
          "type": "address"
        }
      ],
      "name": "SongSold",
      "type": "event"
    },
    {
      "inputs": [
        {
          "internalType": "uint256",
          "name": "_id",
          "type": "uint256"
        }
      ],
      "name": "buySong",
      "outputs": [],
      "stateMutability": "payable",
      "type": "function"
    },
    {
      "inputs": [
        {
          "internalType": "string",
          "name": "_title",
          "type": "string"
        },
        {
          "internalType": "string",
          "name": "_artist",
          "type": "string"
        },
        {
          "internalType": "uint256",
          "name": "_price",
          "type": "uint256"
        }
      ],
      "name": "createSong",
      "outputs": [],
      "stateMutability": "nonpayable",
      "type": "function"
    },
    {
      "inputs": [],
      "name": "getSongCount",
      "outputs": [
        {
          "internalType": "uint256",
          "name": "",
          "type": "uint256"
        }
      ],
      "stateMutability": "view",
      "type": "function"
    },
    {
      "inputs": [
        {
          "internalType": "uint256",
          "name": "",
          "type": "uint256"
        }
      ],
      "name": "songs",
      "outputs": [
        {
          "internalType": "string",
          "name": "title",
          "type": "string"
        },
        {
          "internalType": "string",
          "name": "artist",
          "type": "string"
        },
        {
          "internalType": "uint256",
          "name": "price",
          "type": "uint256"
        },
        {
          "internalType": "address",
          "name": "owner",
          "type": "address"
        },
        {
          "internalType": "bool",
          "name": "forSale",
          "type": "bool"
        }
      ],
      "stateMutability": "view",
      "type": "function"
    }
  ],
  "bytecode": "0x608060405234801561001057600080fd5b50610ffe806100206000396000f3fe60806040526004361061003f5760003560e01c8063304cff3014610044578063606a017514610085578063ca487ad9146100a1578063fcf8ade8146100cc575b600080fd5b34801561005057600080fd5b5061006b600480360381019061006691906106cf565b6100f5565b60405161007c9594939291906107f7565b60405180910390f35b61009f600480360381019061009a91906106cf565b610278565b005b3480156100ad57600080fd5b506100b661051e565b6040516100c39190610858565b60405180910390f35b3480156100d857600080fd5b506100f360048036038101906100ee91906109a8565b61052a565b005b6000818154811061010557600080fd5b906000526020600020906004020160009150905080600001805461012890610a62565b80601f016020809104026020016040519081016040528092919081815260200182805461015490610a62565b80156101a15780601f10610176576101008083540402835291602001916101a1565b820191906000526020600020905b81548152906001019060200180831161018457829003601f168201915b5050505050908060010180546101b690610a62565b80601f01602080910402602001604051908101604052809291908181526020018280546101e290610a62565b801561022f5780601f106102045761010080835404028352916020019161022f565b820191906000526020600020905b81548152906001019060200180831161021257829003601f168201915b5050505050908060020154908060030160009054906101000a900473ffffffffffffffffffffffffffffffffffffffff16908060030160149054906101000a900460ff16905085565b60008054905081106102bf576040517f08c379a00000000000000000000000000000000000000000000000000000000081526004016102b690610adf565b60405180910390fd5b60008082815481106102d4576102d3610aff565b5b906000526020600020906004020190508060030160149054906101000a900460ff16610335576040517f08c379a000000000000000000000000000000000000000000000000000000000815260040161032c90610b7a565b60405180910390fd5b806002015434101561037c576040517f08c379a000000000000000000000000000000000000000000000000000000000815260040161037390610be6565b60405180910390fd5b3373ffffffffffffffffffffffffffffffffffffffff168160030160009054906101000a900473ffffffffffffffffffffffffffffffffffffffff1673ffffffffffffffffffffffffffffffffffffffff160361040e576040517f08c379a000000000000000000000000000000000000000000000000000000000815260040161040590610c52565b60405180910390fd5b60008160030160009054906101000a900473ffffffffffffffffffffffffffffffffffffffff169050338260030160006101000a81548173ffffffffffffffffffffffffffffffffffffffff021916908373ffffffffffffffffffffffffffffffffffffffff16021790555060008260030160146101000a81548160ff0219169083151502179055508073ffffffffffffffffffffffffffffffffffffffff166108fc349081150290604051600060405180830381858888f193505050501580156104dd573d6000803e3d6000fd5b507f3263adda01c13a1032fe35ec7c63a6a904712ac0f0b0f2ae92d4125bfed38cae83823360405161051193929190610c72565b60405180910390a1505050565b60008080549050905090565b60006040518060a001604052808581526020018481526020018381526020013373ffffffffffffffffffffffffffffffffffffffff16815260200160011515815250908060018154018082558091505060019003906000526020600020906004020160009091909190915060008201518160000190816105aa9190610e55565b5060208201518160010190816105c09190610e55565b506040820151816002015560608201518160030160006101000a81548173ffffffffffffffffffffffffffffffffffffffff021916908373ffffffffffffffffffffffffffffffffffffffff16021790555060808201518160030160146101000a81548160ff02191690831515021790555050507fac6e442c7febaf43d1fdd980abfab6937c7f2bc68934b37348214e62eac18e5f60016000805490506106679190610f56565b843360405161067893929190610f8a565b60405180910390a1505050565b6000604051905090565b600080fd5b600080fd5b6000819050919050565b6106ac81610699565b81146106b757600080fd5b50565b6000813590506106c9816106a3565b92915050565b6000602082840312156106e5576106e461068f565b5b60006106f3848285016106ba565b91505092915050565b600081519050919050565b600082825260208201905092915050565b60005b8381101561073657808201518184015260208101905061071b565b60008484015250505050565b6000601f19601f8301169050919050565b600061075e826106fc565b6107688185610707565b9350610778818560208601610718565b61078181610742565b840191505092915050565b61079581610699565b82525050565b600073ffffffffffffffffffffffffffffffffffffffff82169050919050565b60006107c68261079b565b9050919050565b6107d6816107bb565b82525050565b60008115159050919050565b6107f1816107dc565b82525050565b600060a08201905081810360008301526108118188610753565b905081810360208301526108258187610753565b9050610834604083018661078c565b61084160608301856107cd565b61084e60808301846107e8565b9695505050505050565b600060208201905061086d600083018461078c565b92915050565b600080fd5b600080fd5b7f4e487b7100000000000000000000000000000000000000000000000000000000600052604160045260246000fd5b6108b582610742565b810181811067ffffffffffffffff821117156108d4576108d361087d565b5b80604052505050565b60006108e7610685565b90506108f382826108ac565b919050565b600067ffffffffffffffff8211156109135761091261087d565b5b61091c82610742565b9050602081019050919050565b82818337600083830152505050565b600061094b610946846108f8565b6108dd565b90508281526020810184848401111561096757610966610878565b5b610972848285610929565b509392505050565b600082601f83011261098f5761098e610873565b5b813561099f848260208601610938565b91505092915050565b6000806000606084860312156109c1576109c061068f565b5b600084013567ffffffffffffffff8111156109df576109de610694565b5b6109eb8682870161097a565b935050602084013567ffffffffffffffff811115610a0c57610a0b610694565b5b610a188682870161097a565b9250506040610a29868287016106ba565b9150509250925092565b7f4e487b7100000000000000000000000000000000000000000000000000000000600052602260045260246000fd5b60006002820490506001821680610a7a57607f821691505b602082108103610a8d57610a8c610a33565b5b50919050565b7f536f6e6720646f6573206e6f7420657869737400000000000000000000000000600082015250565b6000610ac9601383610707565b9150610ad482610a93565b602082019050919050565b60006020820190508181036000830152610af881610abc565b9050919050565b7f4e487b7100000000000000000000000000000000000000000000000000000000600052603260045260246000fd5b7f536f6e67206e6f7420666f722073616c65000000000000000000000000000000600082015250565b6000610b64601183610707565b9150610b6f82610b2e565b602082019050919050565b60006020820190508181036000830152610b9381610b57565b9050919050565b7f4e6f7420656e6f756768207061796d656e740000000000000000000000000000600082015250565b6000610bd0601283610707565b9150610bdb82610b9a565b602082019050919050565b60006020820190508181036000830152610bff81610bc3565b9050919050565b7f43616e6e6f742062757920796f7572206f776e20736f6e670000000000000000600082015250565b6000610c3c601883610707565b9150610c4782610c06565b602082019050919050565b60006020820190508181036000830152610c6b81610c2f565b9050919050565b6000606082019050610c87600083018661078c565b610c9460208301856107cd565b610ca160408301846107cd565b949350505050565b60008190508160005260206000209050919050565b60006020601f8301049050919050565b600082821b905092915050565b600060088302610d0b7fffffffffffffffffffffffffffffffffffffffffffffffffffffffffffffffff82610cce565b610d158683610cce565b95508019841693508086168417925050509392505050565b6000819050919050565b6000610d52610d4d610d4884610699565b610d2d565b610699565b9050919050565b6000819050919050565b610d6c83610d37565b610d80610d7882610d59565b848454610cdb565b825550505050565b600090565b610d95610d88565b610da0818484610d63565b505050565b5b81811015610dc457610db9600082610d8d565b600181019050610da6565b5050565b601f821115610e0957610dda81610ca9565b610de384610cbe565b81016020851015610df2578190505b610e06610dfe85610cbe565b830182610da5565b50505b505050565b600082821c905092915050565b6000610e2c60001984600802610e0e565b1980831691505092915050565b6000610e458383610e1b565b9150826002028217905092915050565b610e5e826106fc565b67ffffffffffffffff811115610e7757610e7661087d565b5b610e818254610a62565b610e8c828285610dc8565b600060209050601f831160018114610ebf5760008415610ead578287015190505b610eb78582610e39565b865550610f1f565b601f198416610ecd86610ca9565b60005b82811015610ef557848901518255600182019150602085019450602081019050610ed0565b86831015610f125784890151610f0e601f891682610e1b565b8355505b6001600288020188555050505b505050505050565b7f4e487b7100000000000000000000000000000000000000000000000000000000600052601160045260246000fd5b6000610f6182610699565b9150610f6c83610699565b9250828203905081811115610f8457610f83610f27565b5b92915050565b6000606082019050610f9f600083018661078c565b8181036020830152610fb18185610753565b9050610fc060408301846107cd565b94935050505056fea2646970667358221220aa20acaae4cb76b61c517cc13ea78c9668a710aa4d78927595b13a0154d0325964736f6c63430008120033",
  "linkReferences": {},
  "deployedLinkReferences": {}
}