{
  "_format": "hh-sol-artifact-1",
  "contractName": "SimpleMusic",
  "sourceName": "contracts/SimpleMusic.sol",
  "abi": [
    {
      "anonymous": false,
      "inputs": [
        {
          "indexed": false,
          "internalType": "uint256",
          "name": "songId",
          "type": "uint256"
        },
        {
          "indexed": false,
          "internalType": "uint256",
          "name": "auctionId",
          "type": "uint256"
        }
      ],
      "name": "AuctionStarted",
      "type": "event"
    },
    {
      "anonymous": false,
      "inputs": [
        {
          "indexed": false,
          "internalType": "uint256",
          "name": "id",
          "type": "uint256"
        },
        {
          "indexed": false,
          "internalType": "string",
          "name": "title",
          "type": "string"
        },
        {
          "indexed": false,
          "internalType": "address",
          "name": "owner",
          "type": "address"
        }
      ],
      "name": "SongCreated",
      "type": "event"
    },
    {
      "anonymous": false,
      "inputs": [
        {
          "indexed": false,
          "internalType": "uint256",
          "name": "id",
          "type": "uint256"
        },
        {
          "indexed": false,
          "internalType": "address",
          "name": "from",
          "type": "address"
        },
        {
          "indexed": false,
          "internalType": "address",
          "name": "to",
          "type": "address"
        }
      ],
      "name": "SongSold",
      "type": "event"
    },
    {
      "inputs": [],
      "name": "auctionContract",
      "outputs": [
        {
          "internalType": "address",
          "name": "",
          "type": "address"
        }
      ],
      "stateMutability": "view",
      "type": "function"
    },
    {
      "inputs": [
        {
          "internalType": "uint256",
          "name": "_id",
          "type": "uint256"
        }
      ],
      "name": "buySong",
      "outputs": [],
      "stateMutability": "payable",
      "type": "function"
    },
    {
      "inputs": [
        {
          "internalType": "string",
          "name": "_title",
          "type": "string"
        },
        {
          "internalType": "string",
          "name": "_artist",
          "type": "string"
        },
        {
          "internalType": "uint256",
          "name": "_price",
          "type": "uint256"
        }
      ],
      "name": "createSong",
      "outputs": [],
      "stateMutability": "nonpayable",
      "type": "function"
    },
    {
      "inputs": [],
      "name": "getSongCount",
      "outputs": [
        {
          "internalType": "uint256",
          "name": "",
          "type": "uint256"
        }
      ],
      "stateMutability": "view",
      "type": "function"
    },
    {
      "inputs": [
        {
          "internalType": "address",
          "name": "_auctionContract",
          "type": "address"
        }
      ],
      "name": "setAuctionContract",
      "outputs": [],
      "stateMutability": "nonpayable",
      "type": "function"
    },
    {
      "inputs": [
        {
          "internalType": "uint256",
          "name": "",
          "type": "uint256"
        }
      ],
      "name": "songs",
      "outputs": [
        {
          "internalType": "string",
          "name": "title",
          "type": "string"
        },
        {
          "internalType": "string",
          "name": "artist",
          "type": "string"
        },
        {
          "internalType": "uint256",
          "name": "price",
          "type": "uint256"
        },
        {
          "internalType": "address",
          "name": "owner",
          "type": "address"
        },
        {
          "internalType": "bool",
          "name": "forSale",
          "type": "bool"
        },
        {
          "internalType": "bool",
          "name": "isAuction",
          "type": "bool"
        },
        {
          "internalType": "uint256",
          "name": "auctionId",
          "type": "uint256"
        }
      ],
      "stateMutability": "view",
      "type": "function"
    },
    {
      "inputs": [
        {
          "internalType": "uint256",
          "name": "_songId",
          "type": "uint256"
        },
        {
          "internalType": "uint256",
          "name": "_startingBid",
          "type": "uint256"
        },
        {
          "internalType": "uint256",
          "name": "_duration",
          "type": "uint256"
        }
      ],
      "name": "startAuction",
      "outputs": [],
      "stateMutability": "nonpayable",
      "type": "function"
    },
    {
      "inputs": [
        {
          "internalType": "uint256",
          "name": "_songId",
          "type": "uint256"
        },
        {
          "internalType": "address",
          "name": "_newOwner",
          "type": "address"
        }
      ],
      "name": "transferOwnership",
      "outputs": [],
      "stateMutability": "nonpayable",
      "type": "function"
    }
  ],
  "bytecode": "0x608060405234801561001057600080fd5b50611b65806100206000396000f3fe60806040526004361061007b5760003560e01c8063606a01751161004e578063606a01751461014057806391e078bb1461015c578063ca487ad914610185578063fcf8ade8146101b05761007b565b8063023924c7146100805780630ab8afac146100a957806329507f73146100d4578063304cff30146100fd575b600080fd5b34801561008c57600080fd5b506100a760048036038101906100a29190610e23565b6101d9565b005b3480156100b557600080fd5b506100be6102ae565b6040516100cb9190610e5f565b60405180910390f35b3480156100e057600080fd5b506100fb60048036038101906100f69190610eb0565b6102d4565b005b34801561010957600080fd5b50610124600480360381019061011f9190610ef0565b610433565b6040516101379796959493929190610fd7565b60405180910390f35b61015a60048036038101906101559190610ef0565b6105cf565b005b34801561016857600080fd5b50610183600480360381019061017e9190611054565b610890565b005b34801561019157600080fd5b5061019a610c10565b6040516101a791906110a7565b60405180910390f35b3480156101bc57600080fd5b506101d760048036038101906101d291906111f7565b610c1c565b005b600073ffffffffffffffffffffffffffffffffffffffff16600160009054906101000a900473ffffffffffffffffffffffffffffffffffffffff1673ffffffffffffffffffffffffffffffffffffffff161461026a576040517f08c379a0000000000000000000000000000000000000000000000000000000008152600401610261906112ce565b60405180910390fd5b80600160006101000a81548173ffffffffffffffffffffffffffffffffffffffff021916908373ffffffffffffffffffffffffffffffffffffffff16021790555050565b600160009054906101000a900473ffffffffffffffffffffffffffffffffffffffff1681565b600160009054906101000a900473ffffffffffffffffffffffffffffffffffffffff1673ffffffffffffffffffffffffffffffffffffffff163373ffffffffffffffffffffffffffffffffffffffff1614610364576040517f08c379a000000000000000000000000000000000000000000000000000000000815260040161035b90611360565b60405180910390fd5b806000838154811061037957610378611380565b5b906000526020600020906005020160030160006101000a81548173ffffffffffffffffffffffffffffffffffffffff021916908373ffffffffffffffffffffffffffffffffffffffff16021790555060008083815481106103dd576103dc611380565b5b906000526020600020906005020160030160156101000a81548160ff021916908315150217905550600080838154811061041a57610419611380565b5b9060005260206000209060050201600401819055505050565b6000818154811061044357600080fd5b9060005260206000209060050201600091509050806000018054610466906113de565b80601f0160208091040260200160405190810160405280929190818152602001828054610492906113de565b80156104df5780601f106104b4576101008083540402835291602001916104df565b820191906000526020600020905b8154815290600101906020018083116104c257829003601f168201915b5050505050908060010180546104f4906113de565b80601f0160208091040260200160405190810160405280929190818152602001828054610520906113de565b801561056d5780601f106105425761010080835404028352916020019161056d565b820191906000526020600020905b81548152906001019060200180831161055057829003601f168201915b5050505050908060020154908060030160009054906101000a900473ffffffffffffffffffffffffffffffffffffffff16908060030160149054906101000a900460ff16908060030160159054906101000a900460ff16908060040154905087565b6000805490508110610616576040517f08c379a000000000000000000000000000000000000000000000000000000000815260040161060d9061145b565b60405180910390fd5b600080828154811061062b5761062a611380565b5b906000526020600020906005020190508060030160149054906101000a900460ff16801561066857508060030160159054906101000a900460ff16155b6106a7576040517f08c379a000000000000000000000000000000000000000000000000000000000815260040161069e906114ed565b60405180910390fd5b80600201543410156106ee576040517f08c379a00000000000000000000000000000000000000000000000000000000081526004016106e590611559565b60405180910390fd5b3373ffffffffffffffffffffffffffffffffffffffff168160030160009054906101000a900473ffffffffffffffffffffffffffffffffffffffff1673ffffffffffffffffffffffffffffffffffffffff1603610780576040517f08c379a0000000000000000000000000000000000000000000000000000000008152600401610777906115c5565b60405180910390fd5b60008160030160009054906101000a900473ffffffffffffffffffffffffffffffffffffffff169050338260030160006101000a81548173ffffffffffffffffffffffffffffffffffffffff021916908373ffffffffffffffffffffffffffffffffffffffff16021790555060008260030160146101000a81548160ff0219169083151502179055508073ffffffffffffffffffffffffffffffffffffffff166108fc349081150290604051600060405180830381858888f1935050505015801561084f573d6000803e3d6000fd5b507f3263adda01c13a1032fe35ec7c63a6a904712ac0f0b0f2ae92d4125bfed38cae838233604051610883939291906115e5565b60405180910390a1505050565b823373ffffffffffffffffffffffffffffffffffffffff16600082815481106108bc576108bb611380565b5b906000526020600020906005020160030160009054906101000a900473ffffffffffffffffffffffffffffffffffffffff1673ffffffffffffffffffffffffffffffffffffffff1614610944576040517f08c379a000000000000000000000000000000000000000000000000000000000815260040161093b90611668565b60405180910390fd5b600073ffffffffffffffffffffffffffffffffffffffff16600160009054906101000a900473ffffffffffffffffffffffffffffffffffffffff1673ffffffffffffffffffffffffffffffffffffffff16036109d5576040517f08c379a00000000000000000000000000000000000000000000000000000000081526004016109cc906116d4565b60405180910390fd5b600084815481106109e9576109e8611380565b5b906000526020600020906005020160030160149054906101000a900460ff168015610a44575060008481548110610a2357610a22611380565b5b906000526020600020906005020160030160159054906101000a900460ff16155b610a83576040517f08c379a0000000000000000000000000000000000000000000000000000000008152600401610a7a90611740565b60405180910390fd5b600160008581548110610a9957610a98611380565b5b906000526020600020906005020160030160156101000a81548160ff0219169083151502179055506000808581548110610ad657610ad5611380565b5b906000526020600020906005020160030160146101000a81548160ff0219169083151502179055506000600160009054906101000a900473ffffffffffffffffffffffffffffffffffffffff1673ffffffffffffffffffffffffffffffffffffffff1663819c9e4c868686336040518563ffffffff1660e01b8152600401610b619493929190611760565b6020604051808303816000875af1158015610b80573d6000803e3d6000fd5b505050506040513d601f19601f82011682018060405250810190610ba491906117ba565b90508060008681548110610bbb57610bba611380565b5b9060005260206000209060050201600401819055507ff8910119ddbef5440c54532457dfe8250a10ed39e583292818f44724b9e1344c8582604051610c019291906117e7565b60405180910390a15050505050565b60008080549050905090565b60006040518060e001604052808581526020018481526020018381526020013373ffffffffffffffffffffffffffffffffffffffff168152602001600115158152602001600015158152602001600081525090806001815401808255809150506001900390600052602060002090600502016000909190919091506000820151816000019081610cac91906119bc565b506020820151816001019081610cc291906119bc565b506040820151816002015560608201518160030160006101000a81548173ffffffffffffffffffffffffffffffffffffffff021916908373ffffffffffffffffffffffffffffffffffffffff16021790555060808201518160030160146101000a81548160ff02191690831515021790555060a08201518160030160156101000a81548160ff02191690831515021790555060c0820151816004015550507fac6e442c7febaf43d1fdd980abfab6937c7f2bc68934b37348214e62eac18e5f6001600080549050610d939190611abd565b8433604051610da493929190611af1565b60405180910390a1505050565b6000604051905090565b600080fd5b600080fd5b600073ffffffffffffffffffffffffffffffffffffffff82169050919050565b6000610df082610dc5565b9050919050565b610e0081610de5565b8114610e0b57600080fd5b50565b600081359050610e1d81610df7565b92915050565b600060208284031215610e3957610e38610dbb565b5b6000610e4784828501610e0e565b91505092915050565b610e5981610de5565b82525050565b6000602082019050610e746000830184610e50565b92915050565b6000819050919050565b610e8d81610e7a565b8114610e9857600080fd5b50565b600081359050610eaa81610e84565b92915050565b60008060408385031215610ec757610ec6610dbb565b5b6000610ed585828601610e9b565b9250506020610ee685828601610e0e565b9150509250929050565b600060208284031215610f0657610f05610dbb565b5b6000610f1484828501610e9b565b91505092915050565b600081519050919050565b600082825260208201905092915050565b60005b83811015610f57578082015181840152602081019050610f3c565b60008484015250505050565b6000601f19601f8301169050919050565b6000610f7f82610f1d565b610f898185610f28565b9350610f99818560208601610f39565b610fa281610f63565b840191505092915050565b610fb681610e7a565b82525050565b60008115159050919050565b610fd181610fbc565b82525050565b600060e0820190508181036000830152610ff1818a610f74565b905081810360208301526110058189610f74565b90506110146040830188610fad565b6110216060830187610e50565b61102e6080830186610fc8565b61103b60a0830185610fc8565b61104860c0830184610fad565b98975050505050505050565b60008060006060848603121561106d5761106c610dbb565b5b600061107b86828701610e9b565b935050602061108c86828701610e9b565b925050604061109d86828701610e9b565b9150509250925092565b60006020820190506110bc6000830184610fad565b92915050565b600080fd5b600080fd5b7f4e487b7100000000000000000000000000000000000000000000000000000000600052604160045260246000fd5b61110482610f63565b810181811067ffffffffffffffff82111715611123576111226110cc565b5b80604052505050565b6000611136610db1565b905061114282826110fb565b919050565b600067ffffffffffffffff821115611162576111616110cc565b5b61116b82610f63565b9050602081019050919050565b82818337600083830152505050565b600061119a61119584611147565b61112c565b9050828152602081018484840111156111b6576111b56110c7565b5b6111c1848285611178565b509392505050565b600082601f8301126111de576111dd6110c2565b5b81356111ee848260208601611187565b91505092915050565b6000806000606084860312156112105761120f610dbb565b5b600084013567ffffffffffffffff81111561122e5761122d610dc0565b5b61123a868287016111c9565b935050602084013567ffffffffffffffff81111561125b5761125a610dc0565b5b611267868287016111c9565b925050604061127886828701610e9b565b9150509250925092565b7f41756374696f6e20636f6e747261637420616c72656164792073657400000000600082015250565b60006112b8601c83610f28565b91506112c382611282565b602082019050919050565b600060208201905081810360008301526112e7816112ab565b9050919050565b7f4f6e6c792061756374696f6e20636f6e74726163742063616e207472616e736660008201527f6572000000000000000000000000000000000000000000000000000000000000602082015250565b600061134a602283610f28565b9150611355826112ee565b604082019050919050565b600060208201905081810360008301526113798161133d565b9050919050565b7f4e487b7100000000000000000000000000000000000000000000000000000000600052603260045260246000fd5b7f4e487b7100000000000000000000000000000000000000000000000000000000600052602260045260246000fd5b600060028204905060018216806113f657607f821691505b602082108103611409576114086113af565b5b50919050565b7f536f6e6720646f6573206e6f7420657869737400000000000000000000000000600082015250565b6000611445601383610f28565b91506114508261140f565b602082019050919050565b6000602082019050818103600083015261147481611438565b9050919050565b7f536f6e67206e6f7420666f722073616c65206f7220697320696e20617563746960008201527f6f6e000000000000000000000000000000000000000000000000000000000000602082015250565b60006114d7602283610f28565b91506114e28261147b565b604082019050919050565b60006020820190508181036000830152611506816114ca565b9050919050565b7f4e6f7420656e6f756768207061796d656e740000000000000000000000000000600082015250565b6000611543601283610f28565b915061154e8261150d565b602082019050919050565b6000602082019050818103600083015261157281611536565b9050919050565b7f43616e6e6f742062757920796f7572206f776e20736f6e670000000000000000600082015250565b60006115af601883610f28565b91506115ba82611579565b602082019050919050565b600060208201905081810360008301526115de816115a2565b9050919050565b60006060820190506115fa6000830186610fad565b6116076020830185610e50565b6116146040830184610e50565b949350505050565b7f4e6f7420746865206f776e657200000000000000000000000000000000000000600082015250565b6000611652600d83610f28565b915061165d8261161c565b602082019050919050565b6000602082019050818103600083015261168181611645565b9050919050565b7f41756374696f6e20636f6e7472616374206e6f74207365740000000000000000600082015250565b60006116be601883610f28565b91506116c982611688565b602082019050919050565b600060208201905081810360008301526116ed816116b1565b9050919050565b7f536f6e67206e6f7420617661696c61626c6520666f722061756374696f6e0000600082015250565b600061172a601e83610f28565b9150611735826116f4565b602082019050919050565b600060208201905081810360008301526117598161171d565b9050919050565b60006080820190506117756000830187610fad565b6117826020830186610fad565b61178f6040830185610fad565b61179c6060830184610e50565b95945050505050565b6000815190506117b481610e84565b92915050565b6000602082840312156117d0576117cf610dbb565b5b60006117de848285016117a5565b91505092915050565b60006040820190506117fc6000830185610fad565b6118096020830184610fad565b9392505050565b60008190508160005260206000209050919050565b60006020601f8301049050919050565b600082821b905092915050565b6000600883026118727fffffffffffffffffffffffffffffffffffffffffffffffffffffffffffffffff82611835565b61187c8683611835565b95508019841693508086168417925050509392505050565b6000819050919050565b60006118b96118b46118af84610e7a565b611894565b610e7a565b9050919050565b6000819050919050565b6118d38361189e565b6118e76118df826118c0565b848454611842565b825550505050565b600090565b6118fc6118ef565b6119078184846118ca565b505050565b5b8181101561192b576119206000826118f4565b60018101905061190d565b5050565b601f8211156119705761194181611810565b61194a84611825565b81016020851015611959578190505b61196d61196585611825565b83018261190c565b50505b505050565b600082821c905092915050565b600061199360001984600802611975565b1980831691505092915050565b60006119ac8383611982565b9150826002028217905092915050565b6119c582610f1d565b67ffffffffffffffff8111156119de576119dd6110cc565b5b6119e882546113de565b6119f382828561192f565b600060209050601f831160018114611a265760008415611a14578287015190505b611a1e85826119a0565b865550611a86565b601f198416611a3486611810565b60005b82811015611a5c57848901518255600182019150602085019450602081019050611a37565b86831015611a795784890151611a75601f891682611982565b8355505b6001600288020188555050505b505050505050565b7f4e487b7100000000000000000000000000000000000000000000000000000000600052601160045260246000fd5b6000611ac882610e7a565b9150611ad383610e7a565b9250828203905081811115611aeb57611aea611a8e565b5b92915050565b6000606082019050611b066000830186610fad565b8181036020830152611b188185610f74565b9050611b276040830184610e50565b94935050505056fea2646970667358221220c8a24d3d7b2a444612a81d644b3335467e3e6bc3ee69133a6d66e6ba32c6262d64736f6c63430008120033",
  "linkReferences": {},
  "deployedLinkReferences": {}
}