{
  "_format": "hh-sol-artifact-1",
  "contractName": "SimpleMusicNFT",
  "sourceName": "contracts/SimpleMusicNFT.sol",
  "abi": [
    {
      "inputs": [],
      "stateMutability": "nonpayable",
      "type": "constructor"
    },
    {
      "anonymous": false,
      "inputs": [
        {
          "indexed": false,
          "internalType": "uint256",
          "name": "tokenId",
          "type": "uint256"
        },
        {
          "indexed": false,
          "internalType": "string",
          "name": "title",
          "type": "string"
        },
        {
          "indexed": false,
          "internalType": "string",
          "name": "artist",
          "type": "string"
        },
        {
          "indexed": false,
          "internalType": "address",
          "name": "owner",
          "type": "address"
        }
      ],
      "name": "MusicCreated",
      "type": "event"
    },
    {
      "anonymous": false,
      "inputs": [
        {
          "indexed": false,
          "internalType": "uint256",
          "name": "tokenId",
          "type": "uint256"
        },
        {
          "indexed": false,
          "internalType": "address",
          "name": "from",
          "type": "address"
        },
        {
          "indexed": false,
          "internalType": "address",
          "name": "to",
          "type": "address"
        },
        {
          "indexed": false,
          "internalType": "uint256",
          "name": "price",
          "type": "uint256"
        }
      ],
      "name": "MusicSold",
      "type": "event"
    },
    {
      "inputs": [
        {
          "internalType": "uint256",
          "name": "_tokenId",
          "type": "uint256"
        }
      ],
      "name": "buyMusic",
      "outputs": [],
      "stateMutability": "payable",
      "type": "function"
    },
    {
      "inputs": [
        {
          "internalType": "string",
          "name": "_title",
          "type": "string"
        },
        {
          "internalType": "string",
          "name": "_artist",
          "type": "string"
        },
        {
          "internalType": "string",
          "name": "_ipfsHash",
          "type": "string"
        },
        {
          "internalType": "uint256",
          "name": "_price",
          "type": "uint256"
        }
      ],
      "name": "createMusic",
      "outputs": [],
      "stateMutability": "nonpayable",
      "type": "function"
    },
    {
      "inputs": [],
      "name": "getAllMusic",
      "outputs": [
        {
          "components": [
            {
              "internalType": "string",
              "name": "title",
              "type": "string"
            },
            {
              "internalType": "string",
              "name": "artist",
              "type": "string"
            },
            {
              "internalType": "string",
              "name": "ipfsHash",
              "type": "string"
            },
            {
              "internalType": "address",
              "name": "owner",
              "type": "address"
            },
            {
              "internalType": "uint256",
              "name": "price",
              "type": "uint256"
            },
            {
              "internalType": "bool",
              "name": "forSale",
              "type": "bool"
            }
          ],
          "internalType": "struct SimpleMusicNFT.Music[]",
          "name": "",
          "type": "tuple[]"
        }
      ],
      "stateMutability": "view",
      "type": "function"
    },
    {
      "inputs": [],
      "name": "getMyMusic",
      "outputs": [
        {
          "components": [
            {
              "internalType": "string",
              "name": "title",
              "type": "string"
            },
            {
              "internalType": "string",
              "name": "artist",
              "type": "string"
            },
            {
              "internalType": "string",
              "name": "ipfsHash",
              "type": "string"
            },
            {
              "internalType": "address",
              "name": "owner",
              "type": "address"
            },
            {
              "internalType": "uint256",
              "name": "price",
              "type": "uint256"
            },
            {
              "internalType": "bool",
              "name": "forSale",
              "type": "bool"
            }
          ],
          "internalType": "struct SimpleMusicNFT.Music[]",
          "name": "",
          "type": "tuple[]"
        }
      ],
      "stateMutability": "view",
      "type": "function"
    },
    {
      "inputs": [
        {
          "internalType": "uint256",
          "name": "",
          "type": "uint256"
        }
      ],
      "name": "musicTokens",
      "outputs": [
        {
          "internalType": "string",
          "name": "title",
          "type": "string"
        },
        {
          "internalType": "string",
          "name": "artist",
          "type": "string"
        },
        {
          "internalType": "string",
          "name": "ipfsHash",
          "type": "string"
        },
        {
          "internalType": "address",
          "name": "owner",
          "type": "address"
        },
        {
          "internalType": "uint256",
          "name": "price",
          "type": "uint256"
        },
        {
          "internalType": "bool",
          "name": "forSale",
          "type": "bool"
        }
      ],
      "stateMutability": "view",
      "type": "function"
    },
    {
      "inputs": [
        {
          "internalType": "uint256",
          "name": "_tokenId",
          "type": "uint256"
        },
        {
          "internalType": "uint256",
          "name": "_price",
          "type": "uint256"
        }
      ],
      "name": "setForSale",
      "outputs": [],
      "stateMutability": "nonpayable",
      "type": "function"
    },
    {
      "inputs": [],
      "name": "tokenCounter",
      "outputs": [
        {
          "internalType": "uint256",
          "name": "",
          "type": "uint256"
        }
      ],
      "stateMutability": "view",
      "type": "function"
    }
  ],
  "bytecode": "0x608060405234801561001057600080fd5b506000600181905550611bc1806100286000396000f3fe6080604052600436106100705760003560e01c80637e7dcd151161004e5780637e7dcd15146100e557806394af02e314610127578063c6ab113114610150578063d082e3811461017b57610070565b806317fcfe22146100755780632538c5331461009e5780634a4b6656146100ba575b600080fd5b34801561008157600080fd5b5061009c60048036038101906100979190610fe4565b6101a6565b005b6100b860048036038101906100b39190611024565b610295565b005b3480156100c657600080fd5b506100cf6104e7565b6040516100dc91906112a5565b60405180910390f35b3480156100f157600080fd5b5061010c60048036038101906101079190611024565b6107d7565b60405161011e9695949392919061133e565b60405180910390f35b34801561013357600080fd5b5061014e600480360381019061014991906114e9565b6109d8565b005b34801561015c57600080fd5b50610165610b45565b60405161017291906112a5565b60405180910390f35b34801561018757600080fd5b50610190610f46565b60405161019d91906115a4565b60405180910390f35b3373ffffffffffffffffffffffffffffffffffffffff1660008084815260200190815260200160002060030160009054906101000a900473ffffffffffffffffffffffffffffffffffffffff1673ffffffffffffffffffffffffffffffffffffffff1614610249576040517f08c379a00000000000000000000000000000000000000000000000000000000081526004016102409061160b565b60405180910390fd5b600160008084815260200190815260200160002060050160006101000a81548160ff02191690831515021790555080600080848152602001908152602001600020600401819055505050565b600080600083815260200190815260200160002090508060050160009054906101000a900460ff166102fc576040517f08c379a00000000000000000000000000000000000000000000000000000000081526004016102f390611677565b60405180910390fd5b8060040154341015610343576040517f08c379a000000000000000000000000000000000000000000000000000000000815260040161033a906116e3565b60405180910390fd5b3373ffffffffffffffffffffffffffffffffffffffff168160030160009054906101000a900473ffffffffffffffffffffffffffffffffffffffff1673ffffffffffffffffffffffffffffffffffffffff16036103d5576040517f08c379a00000000000000000000000000000000000000000000000000000000081526004016103cc9061174f565b60405180910390fd5b60008160030160009054906101000a900473ffffffffffffffffffffffffffffffffffffffff169050338260030160006101000a81548173ffffffffffffffffffffffffffffffffffffffff021916908373ffffffffffffffffffffffffffffffffffffffff16021790555060008260050160006101000a81548160ff0219169083151502179055508073ffffffffffffffffffffffffffffffffffffffff166108fc349081150290604051600060405180830381858888f193505050501580156104a4573d6000803e3d6000fd5b507f130aa5c6fd6434b9335b079cd2d20cf18b18db7ea85731270b11ca87d193b4ee838233346040516104da949392919061176f565b60405180910390a1505050565b6060600060015467ffffffffffffffff811115610507576105066113be565b5b60405190808252806020026020018201604052801561054057816020015b61052d610f4c565b8152602001906001900390816105255790505b50905060005b6001548110156107cf576000808281526020019081526020016000206040518060c001604052908160008201805461057d906117e3565b80601f01602080910402602001604051908101604052809291908181526020018280546105a9906117e3565b80156105f65780601f106105cb576101008083540402835291602001916105f6565b820191906000526020600020905b8154815290600101906020018083116105d957829003601f168201915b5050505050815260200160018201805461060f906117e3565b80601f016020809104026020016040519081016040528092919081815260200182805461063b906117e3565b80156106885780601f1061065d57610100808354040283529160200191610688565b820191906000526020600020905b81548152906001019060200180831161066b57829003601f168201915b505050505081526020016002820180546106a1906117e3565b80601f01602080910402602001604051908101604052809291908181526020018280546106cd906117e3565b801561071a5780601f106106ef5761010080835404028352916020019161071a565b820191906000526020600020905b8154815290600101906020018083116106fd57829003601f168201915b505050505081526020016003820160009054906101000a900473ffffffffffffffffffffffffffffffffffffffff1673ffffffffffffffffffffffffffffffffffffffff1673ffffffffffffffffffffffffffffffffffffffff168152602001600482015481526020016005820160009054906101000a900460ff1615151515815250508282815181106107b1576107b0611814565b5b602002602001018190525080806107c790611872565b915050610546565b508091505090565b60006020528060005260406000206000915090508060000180546107fa906117e3565b80601f0160208091040260200160405190810160405280929190818152602001828054610826906117e3565b80156108735780601f1061084857610100808354040283529160200191610873565b820191906000526020600020905b81548152906001019060200180831161085657829003601f168201915b505050505090806001018054610888906117e3565b80601f01602080910402602001604051908101604052809291908181526020018280546108b4906117e3565b80156109015780601f106108d657610100808354040283529160200191610901565b820191906000526020600020905b8154815290600101906020018083116108e457829003601f168201915b505050505090806002018054610916906117e3565b80601f0160208091040260200160405190810160405280929190818152602001828054610942906117e3565b801561098f5780601f106109645761010080835404028352916020019161098f565b820191906000526020600020905b81548152906001019060200180831161097257829003601f168201915b5050505050908060030160009054906101000a900473ffffffffffffffffffffffffffffffffffffffff16908060040154908060050160009054906101000a900460ff16905086565b6040518060c001604052808581526020018481526020018381526020013373ffffffffffffffffffffffffffffffffffffffff1681526020018281526020016001151581525060008060015481526020019081526020016000206000820151816000019081610a479190611a66565b506020820151816001019081610a5d9190611a66565b506040820151816002019081610a739190611a66565b5060608201518160030160006101000a81548173ffffffffffffffffffffffffffffffffffffffff021916908373ffffffffffffffffffffffffffffffffffffffff1602179055506080820151816004015560a08201518160050160006101000a81548160ff0219169083151502179055509050507fc96863d80c60b2d0da86bbeaf7f78167496f0a7087c1e53b4f9f11bcc0fba3c7600154858533604051610b1f9493929190611b38565b60405180910390a160016000815480929190610b3a90611872565b919050555050505050565b60606000805b600154811015610bdf573373ffffffffffffffffffffffffffffffffffffffff1660008083815260200190815260200160002060030160009054906101000a900473ffffffffffffffffffffffffffffffffffffffff1673ffffffffffffffffffffffffffffffffffffffff1603610bcc578180610bc890611872565b9250505b8080610bd790611872565b915050610b4b565b5060008167ffffffffffffffff811115610bfc57610bfb6113be565b5b604051908082528060200260200182016040528015610c3557816020015b610c22610f4c565b815260200190600190039081610c1a5790505b5090506000805b600154811015610f3c573373ffffffffffffffffffffffffffffffffffffffff1660008083815260200190815260200160002060030160009054906101000a900473ffffffffffffffffffffffffffffffffffffffff1673ffffffffffffffffffffffffffffffffffffffff1603610f29576000808281526020019081526020016000206040518060c0016040529081600082018054610cdb906117e3565b80601f0160208091040260200160405190810160405280929190818152602001828054610d07906117e3565b8015610d545780601f10610d2957610100808354040283529160200191610d54565b820191906000526020600020905b815481529060010190602001808311610d3757829003601f168201915b50505050508152602001600182018054610d6d906117e3565b80601f0160208091040260200160405190810160405280929190818152602001828054610d99906117e3565b8015610de65780601f10610dbb57610100808354040283529160200191610de6565b820191906000526020600020905b815481529060010190602001808311610dc957829003601f168201915b50505050508152602001600282018054610dff906117e3565b80601f0160208091040260200160405190810160405280929190818152602001828054610e2b906117e3565b8015610e785780601f10610e4d57610100808354040283529160200191610e78565b820191906000526020600020905b815481529060010190602001808311610e5b57829003601f168201915b505050505081526020016003820160009054906101000a900473ffffffffffffffffffffffffffffffffffffffff1673ffffffffffffffffffffffffffffffffffffffff1673ffffffffffffffffffffffffffffffffffffffff168152602001600482015481526020016005820160009054906101000a900460ff161515151581525050838381518110610f0f57610f0e611814565b5b60200260200101819052508180610f2590611872565b9250505b8080610f3490611872565b915050610c3c565b5081935050505090565b60015481565b6040518060c00160405280606081526020016060815260200160608152602001600073ffffffffffffffffffffffffffffffffffffffff168152602001600081526020016000151581525090565b6000604051905090565b600080fd5b600080fd5b6000819050919050565b610fc181610fae565b8114610fcc57600080fd5b50565b600081359050610fde81610fb8565b92915050565b60008060408385031215610ffb57610ffa610fa4565b5b600061100985828601610fcf565b925050602061101a85828601610fcf565b9150509250929050565b60006020828403121561103a57611039610fa4565b5b600061104884828501610fcf565b91505092915050565b600081519050919050565b600082825260208201905092915050565b6000819050602082019050919050565b600081519050919050565b600082825260208201905092915050565b60005b838110156110b757808201518184015260208101905061109c565b60008484015250505050565b6000601f19601f8301169050919050565b60006110df8261107d565b6110e98185611088565b93506110f9818560208601611099565b611102816110c3565b840191505092915050565b600073ffffffffffffffffffffffffffffffffffffffff82169050919050565b60006111388261110d565b9050919050565b6111488161112d565b82525050565b61115781610fae565b82525050565b60008115159050919050565b6111728161115d565b82525050565b600060c083016000830151848203600086015261119582826110d4565b915050602083015184820360208601526111af82826110d4565b915050604083015184820360408601526111c982826110d4565b91505060608301516111de606086018261113f565b5060808301516111f1608086018261114e565b5060a083015161120460a0860182611169565b508091505092915050565b600061121b8383611178565b905092915050565b6000602082019050919050565b600061123b82611051565b611245818561105c565b9350836020820285016112578561106d565b8060005b858110156112935784840389528151611274858261120f565b945061127f83611223565b925060208a0199505060018101905061125b565b50829750879550505050505092915050565b600060208201905081810360008301526112bf8184611230565b905092915050565b600082825260208201905092915050565b60006112e38261107d565b6112ed81856112c7565b93506112fd818560208601611099565b611306816110c3565b840191505092915050565b61131a8161112d565b82525050565b61132981610fae565b82525050565b6113388161115d565b82525050565b600060c082019050818103600083015261135881896112d8565b9050818103602083015261136c81886112d8565b9050818103604083015261138081876112d8565b905061138f6060830186611311565b61139c6080830185611320565b6113a960a083018461132f565b979650505050505050565b600080fd5b600080fd5b7f4e487b7100000000000000000000000000000000000000000000000000000000600052604160045260246000fd5b6113f6826110c3565b810181811067ffffffffffffffff82111715611415576114146113be565b5b80604052505050565b6000611428610f9a565b905061143482826113ed565b919050565b600067ffffffffffffffff821115611454576114536113be565b5b61145d826110c3565b9050602081019050919050565b82818337600083830152505050565b600061148c61148784611439565b61141e565b9050828152602081018484840111156114a8576114a76113b9565b5b6114b384828561146a565b509392505050565b600082601f8301126114d0576114cf6113b4565b5b81356114e0848260208601611479565b91505092915050565b6000806000806080858703121561150357611502610fa4565b5b600085013567ffffffffffffffff81111561152157611520610fa9565b5b61152d878288016114bb565b945050602085013567ffffffffffffffff81111561154e5761154d610fa9565b5b61155a878288016114bb565b935050604085013567ffffffffffffffff81111561157b5761157a610fa9565b5b611587878288016114bb565b925050606061159887828801610fcf565b91505092959194509250565b60006020820190506115b96000830184611320565b92915050565b7f4e6f7420746865206f776e657200000000000000000000000000000000000000600082015250565b60006115f5600d836112c7565b9150611600826115bf565b602082019050919050565b60006020820190508181036000830152611624816115e8565b9050919050565b7f4d75736963206e6f7420666f722073616c650000000000000000000000000000600082015250565b60006116616012836112c7565b915061166c8261162b565b602082019050919050565b6000602082019050818103600083015261169081611654565b9050919050565b7f496e73756666696369656e74207061796d656e74000000000000000000000000600082015250565b60006116cd6014836112c7565b91506116d882611697565b602082019050919050565b600060208201905081810360008301526116fc816116c0565b9050919050565b7f43616e6e6f742062757920796f7572206f776e206d7573696300000000000000600082015250565b60006117396019836112c7565b915061174482611703565b602082019050919050565b600060208201905081810360008301526117688161172c565b9050919050565b60006080820190506117846000830187611320565b6117916020830186611311565b61179e6040830185611311565b6117ab6060830184611320565b95945050505050565b7f4e487b7100000000000000000000000000000000000000000000000000000000600052602260045260246000fd5b600060028204905060018216806117fb57607f821691505b60208210810361180e5761180d6117b4565b5b50919050565b7f4e487b7100000000000000000000000000000000000000000000000000000000600052603260045260246000fd5b7f4e487b7100000000000000000000000000000000000000000000000000000000600052601160045260246000fd5b600061187d82610fae565b91507fffffffffffffffffffffffffffffffffffffffffffffffffffffffffffffffff82036118af576118ae611843565b5b600182019050919050565b60008190508160005260206000209050919050565b60006020601f8301049050919050565b600082821b905092915050565b60006008830261191c7fffffffffffffffffffffffffffffffffffffffffffffffffffffffffffffffff826118df565b61192686836118df565b95508019841693508086168417925050509392505050565b6000819050919050565b600061196361195e61195984610fae565b61193e565b610fae565b9050919050565b6000819050919050565b61197d83611948565b6119916119898261196a565b8484546118ec565b825550505050565b600090565b6119a6611999565b6119b1818484611974565b505050565b5b818110156119d5576119ca60008261199e565b6001810190506119b7565b5050565b601f821115611a1a576119eb816118ba565b6119f4846118cf565b81016020851015611a03578190505b611a17611a0f856118cf565b8301826119b6565b50505b505050565b600082821c905092915050565b6000611a3d60001984600802611a1f565b1980831691505092915050565b6000611a568383611a2c565b9150826002028217905092915050565b611a6f8261107d565b67ffffffffffffffff811115611a8857611a876113be565b5b611a9282546117e3565b611a9d8282856119d9565b600060209050601f831160018114611ad05760008415611abe578287015190505b611ac88582611a4a565b865550611b30565b601f198416611ade866118ba565b60005b82811015611b0657848901518255600182019150602085019450602081019050611ae1565b86831015611b235784890151611b1f601f891682611a2c565b8355505b6001600288020188555050505b505050505050565b6000608082019050611b4d6000830187611320565b8181036020830152611b5f81866112d8565b90508181036040830152611b7381856112d8565b9050611b826060830184611311565b9594505050505056fea26469706673582212207420a014e8691de161410106bb52d777d8f40f79e30ec887bcc56a00341d08f264736f6c63430008120033",
  "linkReferences": {},
  "deployedLinkReferences": {}
}